0234524501525080500251050022JOAN TOWER              
0345632201900080750000001344WOLFGANG AMADEUS MOZART 
0403223301029080000312325400RICHARD STRAUSS         
0646512002200080000150990025AMY BEACH               
0656002302375028250341507085DAME ETHEL SMYTHE       
1387032202295080500212500000PETER ILYICH TCHAIKOVSKY
1496627702020078670007921023ANTON BRUCKNER          